:1000000093C0ADC065C5ABC08BC1A9C0A8C0A7C017
:10001000A6C02FC1A4C0A3C0A2C029C5A0C09FC0B4
:100020009EC09DC09CC09BC0005EBCE2613FDD8362
:10003000C29C7E20A3FD1F419DC3217FFCA2401EC8
:100040005F01E3BD3E6082DC237D9FC1421CFEA0B8
:10005000E1BF5D0380DE3C62BEE0025CDF81633DA8
:100060007C22C09E1D43A1FF4618FAA427799BC598
:1000700084DA3866E5BB5907DB856739BAE4065888
:100080001947A5FB7826C49A653BD987045AB8E678
:10009000A7F91B45C6987A24F8A6441A99C7257B68
:1000A0003A6486D85B05E7B98CD2306EEDB3510F58
:1000B0004E10F2AC2F7193CD114FADF3702ECC9248
:1000C000D38D6F31B2EC0E50AFF1134DCE90722C38
:1000D0006D33D18F0C52B0EE326C8ED0530DEFB128
:1000E000F0AE4C1291CF2D73CA947628ABF5174918
:1000F0000856B4EA6937D58B5709EBB536688AD408
:1001000095CB2977F4AA4816E9B7550B88D6346AF7
:100110002B7597C94A14F6A8742AC896154BA9F7E7
:10012000B6E80A54D7896B3511241FBECFEFD2E051
:10013000DEBFCDBF11E0A0E0B1E0E0E7FCE002C02F
:1001400005900D92AC30B107D9F721E0ACE0B1E0F9
:1001500001C01D92AE34B207E1F711D387C550CF6D
:100160008627E82FF0E0E85DFF4F84910895279AF5
:100170000895279808952F98FCCFF9DF8FEB93E02F
:100180000197F1F700C00000F4DF9AEB9A95F1F7C0
:1001900000C01F9908C01F9BFECF82E08A95F1F72F
:1001A00000C081E0089592E09A95F1F700C080E0E8
:1001B0000895CF93C82FDBDFCC2351F08AE18A95D5
:1001C000F1F700C0D6DF82E98A95F1F700C009C0D7
:1001D0008DEA8A95F1F70000CCDF8DE08A95F1F782
:1001E0000000CF910895CF93DF93D82FC8E08D2FD3
:1001F0008170DFDFD695C150D1F7DF91CF9108959F
:10020000B6DF88E08A95F1F7B4DF9AE19A95F1F7C5
:1002100000C083B19DE89A95F1F7000080780895B9
:10022000CF93DF93D8E0C0E0C695EADF8111C068C4
:10023000D150D1F78C2FDF91CF9108959EDF882385
:1002400019F08CECD0DF81E008950F931F93CF93CA
:10025000DF938C018EEBC7DFE801075F1F4FE0DF04
:100260008993C017D107D9F7DF91CF911F910F91D3
:1002700008951F920F920FB60F9211248F938091C1
:100280004A01882389F080914A018F5F80934A0157
:1002900080914A01833040F080916E008B7F809383
:1002A0006E00AA9AE19AE99A80912101882331F09F
:1002B000815080932101811101C02E9880912801E5
:1002C000813079F4809127018F5F809327018A30F4
:1002D00040F01092260110922801109229011092EC
:1002E0002701809123018F5F80932301803118F0D3
:1002F00081E08093240131990DC0809125018F5FA9
:1003000080932501823009F41E9A80912501843062
:1003100009F41E9A8F910F900FBE0F901F901895A1
:100320001F920F920FB60F9211248F93EF93FF93AA
:10033000E8E6F0E080818D7F808381E080932B016F
:100340002E9A10922301FF91EF918F910F900FBE83
:100350000F901F90189580E090E064E070E02BB162
:1003600027602BB90000000000003BB1AB01082E54
:1003700002C0559547950A94E2F7242F2095232330
:100380002BB900000000000000000000359902C0F9
:1003900020E001C024E0349B21E0339B22E0329B2B
:1003A00003C02430E1F001C023E0422F50E060E2BE
:1003B00070E002C0759567952A95E2F726B130E0A6
:1003C00026233723232BD1F3FC01EE0FFF1FEE0F63
:1003D000FF1FE050FF4FE40FF51F808106C001961C
:1003E0008330910509F0BBCF8FEF9BB1987F9BB90C
:1003F000089571989AE19A95F1F700C0719A9AE17F
:100400009A95F1F700C0882361F070989AE19A9567
:10041000F1F700C0709A9AE19A95F1F700C0815007
:10042000F2CF08952898000000000000199A2FE7E5
:1004300088E391E0215080409040E1F700C0000047
:10044000199A10922A014798409A08952998000015
:1004500000000000189A2FE788E391E021508040C7
:100460009040E1F700C00000189A81E080932A01D3
:100470004098479A089586B1807895E0479A2E9AD9
:100480002FE739EA43E0215030404040E1F700C017
:10049000000047982E982FE739EA43E0215030407A
:1004A0004040E1F700C00000915041F78111479AA8
:1004B000089586B181702E9A95E0409A2FEF33EF20
:1004C00041E0215030404040E1F700C0000040983A
:1004D0002FEF33EF41E0215030404040E1F700C0C2
:1004E0000000915051F72E988111409A089586E0AE
:1004F0004C9A2FEF33EF91E0215030409040E1F7DC
:1005000000C000008150A1F708954C9A2FEF83EFAF
:1005100091E0215080409040E1F700C000004C9AEB
:100520002FEF83EF91E0215080409040E1F700C031
:1005300000000895629904C081E080932A010BC0F5
:10054000639905C010922A014798409A06C081E03D
:1005500080932A017BDF4098479A80912A01089571
:10056000EF92FF920F931F93CF93DF93EC010EE175
:1005700010E07C0184E0E80EF11CF999FECF69914E
:10058000C80167D30F5F1F4FCE15DF05B1F7DF91AD
:10059000CF911F910F91FF90EF900895CF92DF922E
:1005A000FF920F931F93CF93DF930EE110E0EC01C6
:1005B0006C0184E0C80ED11C8FB3982F9270F92E75
:1005C00081FDFACFC8013ED39991891307C00F5F0F
:1005D0001F4FCC15DD0581F7FF24F3948F2DDF919C
:1005E000CF911F910F91FF90DF90CF900895EF92E0
:1005F000FF920F931F93CF93DF93362F272F8150B6
:1006000090E066E070E00DD37C01032F122FC0E074
:10061000D0E0F999FECFF80161918F01C7018C0FED
:100620009D1F8050904015D32196C630D10589F783
:10063000DF91CF911F910F91FF90EF900895BF929E
:10064000CF92DF92EF92FF920F931F93CF93DF939E
:10065000C82EB92EC0E0D0E0EC2CFB2C00E010E05E
:100660008FB3982F9270D92E81FDFACFCE01800FD3
:10067000911F80509040E6D2F70191917F0189133C
:1006800008C00F5F1F4F0630110551F7DD24D394CA
:1006900004C02696C633D105F9F68D2DDF91CF9192
:1006A0001F910F91FF90EF90DF90CF90BF90089532
:1006B0000F931F93CF93DF93DC019C01245F3F4F87
:1006C000FC014FE05EE0CDE0DCE01BE00AE0918160
:1006D00080ED890F8A3018F49F70918321C08FEBD1
:1006E000890F8630E0F59F70913009F40183818194
:1006F0008F70823009F4118381818F70833009F407
:10070000D18381818F70843009F4C18381818F709E
:10071000853009F4518381818F70863009F44183DB
:100720003196E217F30799F6FB0121E011968C91BF
:1007300011978295807F12969C911297890F11963E
:100740008C931197213019F4EB01888301C08083C9
:100750002E5F129631962D3049F781E001C080E07E
:10076000DF91CF911F910F910895282FFC019FEFEA
:100770008E2F821B861710F49193FACF08958BB1B8
:10078000806E8BB985B18C6385B98AB187608AB96F
:1007900088B18E6388B987B1816887B984B1836075
:1007A00084B985B18C7F85B9269A8DB183608DB966
:1007B0008EB183608EB9549A809168008260809374
:1007C000680080916C008E6380936C0082E19AE7F0
:1007D0009093890080938800809181008C60809341
:1007E000810080916F00826080936F0099E288E1C0
:1007F0000FB6F894A895809360000FBE90936000A8
:10080000BADC1CDD84E4EFDC9ED1789493DEFF2417
:10081000F39452E0E52ECBE3D1E008E010E08091C4
:100820002B01813009F077C02FEB3AED80E02150A9
:1008300030408040E1F700C00000319917C0319B83
:10084000FECF80912A01882369F0ECDD809125019B
:10085000823048F0843018F4F092290104C0E0920C
:10086000290101C0F3DD109225010CC074DD8093D5
:100870004B018B3051F480912A01811101C0E6DDDA
:1008800010922901109226012FC08A3069F48091BC
:1008900029018823B9F38CE291E062DE10922901EC
:1008A0001092260106DE20C08F3FF1F090912601C4
:1008B000E92FF0E0E45DFE4F808381E0890F8093B3
:1008C0002601843088F08CE291E068DE882331F0E4
:1008D00080912A01882311F0A5DDD4CF80912A01CF
:1008E000882381F2C8DDCECF10922B011092270110
:1008F000F092280180912101811101C02E98EFE42E
:10090000F3EC3197F1F700C00000D99A80916800AC
:1009100082608093680080912401813009F06BC06F
:100920008FB780933001F89489DC882309F44FC095
:1009300083E391E08ADC809130018FBF1092440103
:1009400043E3C42E41E0D42EF60161916F01809102
:10095000440106DC80934401CC15DD05A9F7909194
:100960003B01891339C0209134018091330190916A
:10097000340127FF0FC09801281B390BC90134E04F
:10098000969587953A95E1F790934D0180934C01A8
:100990005C9A0BC0089624E0969587952A95E1F716
:1009A00090934D0180934C015C9880914C01909103
:1009B0004D012091220130E0AC0155272417350765
:1009C00009F017DD80914C018093220106C08091CF
:1009D00030018FBF88E50DDD8ADD10922401109271
:1009E00023018FB780933001F89428DC84E4FBDB8B
:1009F000809130018FBF809120018823B1F16EE09A
:100A000082E191E0B6D08F3F29F1813061F56CE051
:100A100071E082E191E04CDE882329F176DD80915E
:100A20002901823051F480914B019FEF980F95304E
:100A300020F46CE071E0DBDD3CDD80912A0188234D
:100A400049F08CE091E0FBDD882319F0EBDC31DD2F
:100A500001C011DD6EE082E191E087DE66E08CE0AE
:100A600091E083DEE99A10922001A895D8CE1F92DA
:100A70000F920FB60F9211248F9380914801893005
:100A800019F481E0809320014B9B05C080914901BE
:100A9000806880934901809148018150809348018A
:100AA00081110BC010924A0180916E008B7F809360
:100AB0006E00AA9AE19AE99A05C08091490186954B
:100AC000809349018F910F900FBE0F901F90189542
:100AD0001F920F920FB60F9211248F9381E0809393
:100AE0004A011092230189E0809348011092490144
:100AF00086B5823318F486B58E5C02C086B5825303
:100B000088BDE99885B3866085BB80916E0084605E
:100B100080936E008F910F900FBE0F901F901895CD
:100B200020914801293068F4209148012111FCCF1F
:100B300020914901FC01208329E020934801808114
:100B400008958FEF08951092490189E0809348013C
:100B500053984B9A84E687BD85B5886085BD85B579
:100B6000826085BDE9E6F0E0808188608083E99A53
:100B70000895EF92FF920F931F93CF93DF93EC01B1
:100B8000162F00913201E02EF12C8E0D9F1DC8DF33
:100B9000612F70E061507109E616F70664F40F5F8B
:100BA000009332018881823021F16EE0CE01DDDDDB
:100BB000109232011EC08D85833021F06EE0CE018F
:100BC000D4DD04C080913101873028F010923201C9
:100BD000109231011EC0E99880916E008B7F809346
:100BE0006E00AA9AE19A109232011092310181E0CE
:100BF00011C080913201823060F0FE01E80FF11DDA
:100C000099818081981305C0809131018F5F809315
:100C1000310180E0DF91CF911F910F91FF90EF9014
:100C200008950024552704C0080E591F880F991FE6
:100C3000009729F076956795B8F37105B9F7802D7F
:100C4000952F0895F999FECF81BDF89A992780B51F
:100C50000895262FF999FECF1FBA81BD20BD0FB68A
:100C6000F894FA9AF99A0FBE01960895F894FFCF76
:0C0C70000104070A020508000306090B36
:00000001FF
